{
  "contractName": "RewardContract",
  "abi": [
    {
      "constant": true,
      "inputs": [
        {
          "internalType": "address",
          "name": "",
          "type": "address"
        },
        {
          "internalType": "uint256",
          "name": "",
          "type": "uint256"
        }
      ],
      "name": "RewardStatus",
      "outputs": [
        {
          "internalType": "string",
          "name": "scope",
          "type": "string"
        },
        {
          "internalType": "string",
          "name": "usePermissions",
          "type": "string"
        },
        {
          "internalType": "uint256",
          "name": "balance",
          "type": "uint256"
        }
      ],
      "payable": false,
      "stateMutability": "view",
      "type": "function"
    },
    {
      "constant": true,
      "inputs": [
        {
          "internalType": "string",
          "name": "a",
          "type": "string"
        },
        {
          "internalType": "string",
          "name": "b",
          "type": "string"
        }
      ],
      "name": "compareStrings",
      "outputs": [
        {
          "internalType": "bool",
          "name": "",
          "type": "bool"
        }
      ],
      "payable": false,
      "stateMutability": "view",
      "type": "function"
    },
    {
      "constant": false,
      "inputs": [],
      "name": "registerUser",
      "outputs": [],
      "payable": false,
      "stateMutability": "nonpayable",
      "type": "function"
    },
    {
      "constant": false,
      "inputs": [],
      "name": "registerMerchant",
      "outputs": [],
      "payable": false,
      "stateMutability": "nonpayable",
      "type": "function"
    },
    {
      "constant": false,
      "inputs": [
        {
          "internalType": "address",
          "name": "targetUser",
          "type": "address"
        },
        {
          "internalType": "string",
          "name": "scope",
          "type": "string"
        },
        {
          "internalType": "string",
          "name": "usePermissions",
          "type": "string"
        },
        {
          "internalType": "uint256",
          "name": "amount",
          "type": "uint256"
        }
      ],
      "name": "earnPoints",
      "outputs": [],
      "payable": false,
      "stateMutability": "nonpayable",
      "type": "function"
    },
    {
      "constant": false,
      "inputs": [
        {
          "internalType": "address",
          "name": "merchant",
          "type": "address"
        },
        {
          "internalType": "string",
          "name": "scope",
          "type": "string"
        },
        {
          "internalType": "string",
          "name": "usePermissions",
          "type": "string"
        },
        {
          "internalType": "uint256",
          "name": "amount",
          "type": "uint256"
        }
      ],
      "name": "usePoints",
      "outputs": [],
      "payable": false,
      "stateMutability": "nonpayable",
      "type": "function"
    }
  ],
  "bytecode": "0x608060405233600260006101000a81548173ffffffffffffffffffffffffffffffffffffffff021916908373ffffffffffffffffffffffffffffffffffffffff16021790555034801561005157600080fd5b50611455806100616000396000f3fe608060405234801561001057600080fd5b50600436106100625760003560e01c806345206196146100675780634d3820eb1461007157806356ae0ae91461007b578063819748ad146101f7578063bed34bba14610331578063deaf4f991461049b575b600080fd5b61006f610617565b005b610079610730565b005b6101f56004803603608081101561009157600080fd5b81019080803573ffffffffffffffffffffffffffffffffffffffff169060200190929190803590602001906401000000008111156100ce57600080fd5b8201836020820111156100e057600080fd5b8035906020019184600183028401116401000000008311171561010257600080fd5b91908080601f016020809104026020016040519081016040528093929190818152602001838380828437600081840152601f19601f8201169050808301925050505050505091929192908035906020019064010000000081111561016557600080fd5b82018360208201111561017757600080fd5b8035906020019184600183028401116401000000008311171561019957600080fd5b91908080601f016020809104026020016040519081016040528093929190818152602001838380828437600081840152601f19601f82011690508083019250505050505050919291929080359060200190929190505050610848565b005b6102436004803603604081101561020d57600080fd5b81019080803573ffffffffffffffffffffffffffffffffffffffff16906020019092919080359060200190929190505050610cb3565b604051808060200180602001848152602001838103835286818151815260200191508051906020019080838360005b8381101561028d578082015181840152602081019050610272565b50505050905090810190601f1680156102ba5780820380516001836020036101000a031916815260200191505b50838103825285818151815260200191508051906020019080838360005b838110156102f35780820151818401526020810190506102d8565b50505050905090810190601f1680156103205780820380516001836020036101000a031916815260200191505b509550505050505060405180910390f35b6104816004803603604081101561034757600080fd5b810190808035906020019064010000000081111561036457600080fd5b82018360208201111561037657600080fd5b8035906020019184600183028401116401000000008311171561039857600080fd5b91908080601f016020809104026020016040519081016040528093929190818152602001838380828437600081840152601f19601f820116905080830192505050505050509192919290803590602001906401000000008111156103fb57600080fd5b82018360208201111561040d57600080fd5b8035906020019184600183028401116401000000008311171561042f57600080fd5b91908080601f016020809104026020016040519081016040528093929190818152602001838380828437600081840152601f19601f820116905080830192505050505050509192919290505050610e27565b604051808215151515815260200191505060405180910390f35b610615600480360360808110156104b157600080fd5b81019080803573ffffffffffffffffffffffffffffffffffffffff169060200190929190803590602001906401000000008111156104ee57600080fd5b82018360208201111561050057600080fd5b8035906020019184600183028401116401000000008311171561052257600080fd5b91908080601f016020809104026020016040519081016040528093929190818152602001838380828437600081840152601f19601f8201169050808301925050505050505091929192908035906020019064010000000081111561058557600080fd5b82018360208201111561059757600080fd5b803590602001918460018302840111640100000000831117156105b957600080fd5b91908080601f016020809104026020016040519081016040528093929190818152602001838380828437600081840152601f19601f82011690508083019250505050505050919291929080359060200190929190505050610f16565b005b600160003373ffffffffffffffffffffffffffffffffffffffff1673ffffffffffffffffffffffffffffffffffffffff16815260200190815260200160002060009054906101000a900460ff16156106d7576040517f08c379a000000000000000000000000000000000000000000000000000000000815260040180806020018281038252601c8152602001807f4d65726368616e7420616c72656164792072656769737465726564210000000081525060200191505060405180910390fd5b60018060003373ffffffffffffffffffffffffffffffffffffffff1673ffffffffffffffffffffffffffffffffffffffff16815260200190815260200160002060006101000a81548160ff021916908315150217905550565b6000803373ffffffffffffffffffffffffffffffffffffffff1673ffffffffffffffffffffffffffffffffffffffff16815260200190815260200160002060009054906101000a900460ff16156107ef576040517f08c379a00000000000000000000000000000000000000000000000000000000081526004018080602001828103825260188152602001807f5573657220616c7265616479207265676973746572656421000000000000000081525060200191505060405180910390fd5b60016000803373ffffffffffffffffffffffffffffffffffffffff1673ffffffffffffffffffffffffffffffffffffffff16815260200190815260200160002060006101000a81548160ff021916908315150217905550565b600160008573ffffffffffffffffffffffffffffffffffffffff1673ffffffffffffffffffffffffffffffffffffffff16815260200190815260200160002060009054906101000a900460ff16610907576040517f08c379a00000000000000000000000000000000000000000000000000000000081526004018080602001828103825260168152602001807f556e72656769737465726564206d65726368616e74210000000000000000000081525060200191505060405180910390fd5b60008090505b600360003373ffffffffffffffffffffffffffffffffffffffff1673ffffffffffffffffffffffffffffffffffffffff16815260200190815260200160002080549050811015610cab57610a54600360003373ffffffffffffffffffffffffffffffffffffffff1673ffffffffffffffffffffffffffffffffffffffff16815260200190815260200160002082815481106109a457fe5b90600052602060002090600302016000018054600181600116156101000203166002900480601f016020809104026020016040519081016040528092919081815260200182805460018160011615610100020316600290048015610a495780601f10610a1e57610100808354040283529160200191610a49565b820191906000526020600020905b815481529060010190602001808311610a2c57829003601f168201915b505050505085610e27565b8015610b595750610b58600360003373ffffffffffffffffffffffffffffffffffffffff1673ffffffffffffffffffffffffffffffffffffffff1681526020019081526020016000208281548110610aa857fe5b90600052602060002090600302016001018054600181600116156101000203166002900480601f016020809104026020016040519081016040528092919081815260200182805460018160011615610100020316600290048015610b4d5780601f10610b2257610100808354040283529160200191610b4d565b820191906000526020600020905b815481529060010190602001808311610b3057829003601f168201915b505050505084610e27565b5b15610c9e5781600360003373ffffffffffffffffffffffffffffffffffffffff1673ffffffffffffffffffffffffffffffffffffffff1681526020019081526020016000208281548110610ba957fe5b9060005260206000209060030201600201541015610c2f576040517f08c379a00000000000000000000000000000000000000000000000000000000081526004018080602001828103825260148152602001807f496e73756666696369656e7420706f696e74732100000000000000000000000081525060200191505060405180910390fd5b81600360003373ffffffffffffffffffffffffffffffffffffffff1673ffffffffffffffffffffffffffffffffffffffff1681526020019081526020016000208281548110610c7a57fe5b90600052602060002090600302016002016000828254039250508190555050610cad565b808060010191505061090d565b505b50505050565b60036020528160005260406000208181548110610ccc57fe5b906000526020600020906003020160009150915050806000018054600181600116156101000203166002900480601f016020809104026020016040519081016040528092919081815260200182805460018160011615610100020316600290048015610d795780601f10610d4e57610100808354040283529160200191610d79565b820191906000526020600020905b815481529060010190602001808311610d5c57829003601f168201915b505050505090806001018054600181600116156101000203166002900480601f016020809104026020016040519081016040528092919081815260200182805460018160011615610100020316600290048015610e175780601f10610dec57610100808354040283529160200191610e17565b820191906000526020600020905b815481529060010190602001808311610dfa57829003601f168201915b5050505050908060020154905083565b6000816040516020018082805190602001908083835b60208310610e605780518252602082019150602081019050602083039250610e3d565b6001836020036101000a03801982511681845116808217855250505050505090500191505060405160208183030381529060405280519060200120836040516020018082805190602001908083835b60208310610ed25780518252602082019150602081019050602083039250610eaf565b6001836020036101000a0380198251168184511680821785525050505050509050019150506040516020818303038152906040528051906020012014905092915050565b6000808573ffffffffffffffffffffffffffffffffffffffff1673ffffffffffffffffffffffffffffffffffffffff16815260200190815260200160002060009054906101000a900460ff16610fd4576040517f08c379a00000000000000000000000000000000000000000000000000000000081526004018080602001828103825260128152602001807f556e72656769737465726564207573657221000000000000000000000000000081525060200191505060405180910390fd5b60008090505b600360008673ffffffffffffffffffffffffffffffffffffffff1673ffffffffffffffffffffffffffffffffffffffff168152602001908152602001600020805490508110156112a757611121600360008773ffffffffffffffffffffffffffffffffffffffff1673ffffffffffffffffffffffffffffffffffffffff168152602001908152602001600020828154811061107157fe5b90600052602060002090600302016000018054600181600116156101000203166002900480601f0160208091040260200160405190810160405280929190818152602001828054600181600116156101000203166002900480156111165780601f106110eb57610100808354040283529160200191611116565b820191906000526020600020905b8154815290600101906020018083116110f957829003601f168201915b505050505085610e27565b80156112265750611225600360008773ffffffffffffffffffffffffffffffffffffffff1673ffffffffffffffffffffffffffffffffffffffff168152602001908152602001600020828154811061117557fe5b90600052602060002090600302016001018054600181600116156101000203166002900480601f01602080910402602001604051908101604052809291908181526020018280546001816001161561010002031660029004801561121a5780601f106111ef5761010080835404028352916020019161121a565b820191906000526020600020905b8154815290600101906020018083116111fd57829003601f168201915b505050505084610e27565b5b1561129a5781600360008773ffffffffffffffffffffffffffffffffffffffff1673ffffffffffffffffffffffffffffffffffffffff168152602001908152602001600020828154811061127657fe5b90600052602060002090600302016002016000828254019250508190555050611375565b8080600101915050610fda565b50600360008573ffffffffffffffffffffffffffffffffffffffff1673ffffffffffffffffffffffffffffffffffffffff16815260200190815260200160002060405180606001604052808581526020018481526020018381525090806001815401808255809150509060018203906000526020600020906003020160009091929091909150600082015181600001908051906020019061134992919061137b565b50602082015181600101908051906020019061136692919061137b565b50604082015181600201555050505b50505050565b828054600181600116156101000203166002900490600052602060002090601f016020900481019282601f106113bc57805160ff19168380011785556113ea565b828001600101855582156113ea579182015b828111156113e95782518255916020019190600101906113ce565b5b5090506113f791906113fb565b5090565b61141d91905b80821115611419576000816000905550600101611401565b5090565b9056fea265627a7a723158207f853fe04961ca26560b84f85b74f545736a32d50bfb139a3754165edb9c70e564736f6c63430005100032",
  "source": "pragma solidity ^0.5.16;\r\n\r\n\r\ncontract RewardContract {\r\n    struct RewardPoint {\r\n        string scope;\r\n        string usePermissions;\r\n        uint balance;\r\n    }\r\n    function compareStrings (string memory a, string memory b) public view returns (bool) {\r\n        return (keccak256(abi.encodePacked((a))) == keccak256(abi.encodePacked((b))) );\r\n    }\r\n    \r\n    mapping(address => bool) registeredUsers;\r\n    mapping(address => bool) registeredMerchants;\r\n    \r\n    address owner = msg.sender;\r\n    mapping(address => RewardPoint[]) public RewardStatus;\r\n    \r\n    function registerUser() public{\r\n        require(!registeredUsers[msg.sender], \"User already registered!\");\r\n        registeredUsers[msg.sender] = true;\r\n    }\r\n    \r\n    function registerMerchant() public{\r\n        require(!registeredMerchants[msg.sender], \"Merchant already registered!\");\r\n        registeredMerchants[msg.sender] = true;\r\n    }\r\n    \r\n    function earnPoints(address targetUser, string memory scope, string memory usePermissions, uint amount) public{\r\n        require(registeredUsers[targetUser], \"Unregistered user!\");\r\n        for(uint i = 0; i < RewardStatus[targetUser].length; i++){\r\n            if(compareStrings(RewardStatus[targetUser][i].scope, scope) && compareStrings(RewardStatus[targetUser][i].usePermissions, usePermissions)){\r\n                RewardStatus[targetUser][i].balance += amount;\r\n                return;\r\n            }\r\n        }\r\n        RewardStatus[targetUser].push(RewardPoint({\r\n            scope: scope,\r\n            usePermissions: usePermissions,\r\n            balance: amount\r\n        }));\r\n    }\r\n    \r\n    function usePoints(address merchant, string memory scope, string memory usePermissions, uint amount) public{\r\n        require(registeredMerchants[merchant], \"Unregistered merchant!\");\r\n        for(uint i = 0; i < RewardStatus[msg.sender].length; i++){\r\n            if(compareStrings(RewardStatus[msg.sender][i].scope, scope) && compareStrings(RewardStatus[msg.sender][i].usePermissions, usePermissions)){\r\n                    require(RewardStatus[msg.sender][i].balance >= amount, \"Insufficient points!\");\r\n                    RewardStatus[msg.sender][i].balance -= amount;\r\n                    return;\r\n                    }\r\n                }\r\n                \r\n            }\r\n        \r\n    }\r\n",
  "sourcePath": "D:\\Hackathon\\TruffleProject\\contracts\\RewardContract.sol",
  "compiler": {
    "name": "solc",
    "version": "0.5.16+commit.9c3226ce.Emscripten.clang"
  },
  "schemaVersion": "3.2.1",
  "updatedAt": "2020-07-06T09:27:46.271Z",
  "devdoc": {
    "methods": {}
  },
  "userdoc": {
    "methods": {}
  }
}