{
  "contractName": "RewardContract",
  "abi": [
    {
      "constant": true,
      "inputs": [
        {
          "internalType": "address",
          "name": "",
          "type": "address"
        },
        {
          "internalType": "uint256",
          "name": "",
          "type": "uint256"
        }
      ],
      "name": "RewardStatus",
      "outputs": [
        {
          "internalType": "string",
          "name": "scope",
          "type": "string"
        },
        {
          "internalType": "string",
          "name": "usePermissions",
          "type": "string"
        },
        {
          "internalType": "uint256",
          "name": "balance",
          "type": "uint256"
        }
      ],
      "payable": false,
      "stateMutability": "view",
      "type": "function"
    },
    {
      "constant": true,
      "inputs": [
        {
          "internalType": "string",
          "name": "a",
          "type": "string"
        },
        {
          "internalType": "string",
          "name": "b",
          "type": "string"
        }
      ],
      "name": "compareStrings",
      "outputs": [
        {
          "internalType": "bool",
          "name": "",
          "type": "bool"
        }
      ],
      "payable": false,
      "stateMutability": "view",
      "type": "function"
    },
    {
      "constant": false,
      "inputs": [
        {
          "internalType": "address",
          "name": "user",
          "type": "address"
        }
      ],
      "name": "registerUser",
      "outputs": [],
      "payable": false,
      "stateMutability": "nonpayable",
      "type": "function"
    },
    {
      "constant": false,
      "inputs": [
        {
          "internalType": "address",
          "name": "merchant",
          "type": "address"
        }
      ],
      "name": "registerMerchants",
      "outputs": [],
      "payable": false,
      "stateMutability": "nonpayable",
      "type": "function"
    },
    {
      "constant": false,
      "inputs": [
        {
          "internalType": "address",
          "name": "targetUser",
          "type": "address"
        },
        {
          "internalType": "string",
          "name": "scope",
          "type": "string"
        },
        {
          "internalType": "string",
          "name": "usePermissions",
          "type": "string"
        },
        {
          "internalType": "uint256",
          "name": "amount",
          "type": "uint256"
        }
      ],
      "name": "earnPoints",
      "outputs": [],
      "payable": false,
      "stateMutability": "nonpayable",
      "type": "function"
    },
    {
      "constant": false,
      "inputs": [
        {
          "internalType": "address",
          "name": "targetUser",
          "type": "address"
        },
        {
          "internalType": "address",
          "name": "merchant",
          "type": "address"
        },
        {
          "internalType": "string",
          "name": "scope",
          "type": "string"
        },
        {
          "internalType": "string",
          "name": "usePermissions",
          "type": "string"
        },
        {
          "internalType": "uint256",
          "name": "amount",
          "type": "uint256"
        }
      ],
      "name": "usePoints",
      "outputs": [],
      "payable": false,
      "stateMutability": "nonpayable",
      "type": "function"
    }
  ],
  "bytecode": "0x608060405233600260006101000a81548173ffffffffffffffffffffffffffffffffffffffff021916908373ffffffffffffffffffffffffffffffffffffffff16021790555034801561005157600080fd5b50611671806100616000396000f3fe608060405234801561001057600080fd5b50600436106100625760003560e01c80632199d5cd14610067578063819748ad146100ab578063822b2762146101e5578063a650ab5114610229578063bed34bba146103c5578063deaf4f991461052f575b600080fd5b6100a96004803603602081101561007d57600080fd5b81019080803573ffffffffffffffffffffffffffffffffffffffff1690602001909291905050506106ab565b005b6100f7600480360360408110156100c157600080fd5b81019080803573ffffffffffffffffffffffffffffffffffffffff16906020019092919080359060200190929190505050610705565b604051808060200180602001848152602001838103835286818151815260200191508051906020019080838360005b83811015610141578082015181840152602081019050610126565b50505050905090810190601f16801561016e5780820380516001836020036101000a031916815260200191505b50838103825285818151815260200191508051906020019080838360005b838110156101a757808201518184015260208101905061018c565b50505050905090810190601f1680156101d45780820380516001836020036101000a031916815260200191505b509550505050505060405180910390f35b610227600480360360208110156101fb57600080fd5b81019080803573ffffffffffffffffffffffffffffffffffffffff169060200190929190505050610879565b005b6103c3600480360360a081101561023f57600080fd5b81019080803573ffffffffffffffffffffffffffffffffffffffff169060200190929190803573ffffffffffffffffffffffffffffffffffffffff1690602001909291908035906020019064010000000081111561029c57600080fd5b8201836020820111156102ae57600080fd5b803590602001918460018302840111640100000000831117156102d057600080fd5b91908080601f016020809104026020016040519081016040528093929190818152602001838380828437600081840152601f19601f8201169050808301925050505050505091929192908035906020019064010000000081111561033357600080fd5b82018360208201111561034557600080fd5b8035906020019184600183028401116401000000008311171561036757600080fd5b91908080601f016020809104026020016040519081016040528093929190818152602001838380828437600081840152601f19601f82011690508083019250505050505050919291929080359060200190929190505050610993565b005b610515600480360360408110156103db57600080fd5b81019080803590602001906401000000008111156103f857600080fd5b82018360208201111561040a57600080fd5b8035906020019184600183028401116401000000008311171561042c57600080fd5b91908080601f016020809104026020016040519081016040528093929190818152602001838380828437600081840152601f19601f8201169050808301925050505050505091929192908035906020019064010000000081111561048f57600080fd5b8201836020820111156104a157600080fd5b803590602001918460018302840111640100000000831117156104c357600080fd5b91908080601f016020809104026020016040519081016040528093929190818152602001838380828437600081840152601f19601f820116905080830192505050505050509192919290505050610f80565b604051808215151515815260200191505060405180910390f35b6106a96004803603608081101561054557600080fd5b81019080803573ffffffffffffffffffffffffffffffffffffffff1690602001909291908035906020019064010000000081111561058257600080fd5b82018360208201111561059457600080fd5b803590602001918460018302840111640100000000831117156105b657600080fd5b91908080601f016020809104026020016040519081016040528093929190818152602001838380828437600081840152601f19601f8201169050808301925050505050505091929192908035906020019064010000000081111561061957600080fd5b82018360208201111561062b57600080fd5b8035906020019184600183028401116401000000008311171561064d57600080fd5b91908080601f016020809104026020016040519081016040528093929190818152602001838380828437600081840152601f19601f8201169050808301925050505050505091929192908035906020019092919050505061106f565b005b60016000808373ffffffffffffffffffffffffffffffffffffffff1673ffffffffffffffffffffffffffffffffffffffff16815260200190815260200160002060006101000a81548160ff02191690831515021790555050565b6003602052816000526040600020818154811061071e57fe5b906000526020600020906003020160009150915050806000018054600181600116156101000203166002900480601f0160208091040260200160405190810160405280929190818152602001828054600181600116156101000203166002900480156107cb5780601f106107a0576101008083540402835291602001916107cb565b820191906000526020600020905b8154815290600101906020018083116107ae57829003601f168201915b505050505090806001018054600181600116156101000203166002900480601f0160208091040260200160405190810160405280929190818152602001828054600181600116156101000203166002900480156108695780601f1061083e57610100808354040283529160200191610869565b820191906000526020600020905b81548152906001019060200180831161084c57829003601f168201915b5050505050908060020154905083565b600160008273ffffffffffffffffffffffffffffffffffffffff1673ffffffffffffffffffffffffffffffffffffffff16815260200190815260200160002060009054906101000a900460ff1615610939576040517f08c379a000000000000000000000000000000000000000000000000000000000815260040180806020018281038252601f8152602001807f4d65726368616e7420697320616c72656164792072656769737465726564210081525060200191505060405180910390fd5b60018060008373ffffffffffffffffffffffffffffffffffffffff1673ffffffffffffffffffffffffffffffffffffffff16815260200190815260200160002060006101000a81548160ff02191690831515021790555050565b600260009054906101000a900473ffffffffffffffffffffffffffffffffffffffff1673ffffffffffffffffffffffffffffffffffffffff163373ffffffffffffffffffffffffffffffffffffffff1614610a56576040517f08c379a00000000000000000000000000000000000000000000000000000000081526004018080602001828103825260128152602001807f596f752063616e277420646f207468617421000000000000000000000000000081525060200191505060405180910390fd5b6000808673ffffffffffffffffffffffffffffffffffffffff1673ffffffffffffffffffffffffffffffffffffffff16815260200190815260200160002060009054906101000a900460ff16610b14576040517f08c379a00000000000000000000000000000000000000000000000000000000081526004018080602001828103825260128152602001807f556e72656769737465726564207573657221000000000000000000000000000081525060200191505060405180910390fd5b600160008573ffffffffffffffffffffffffffffffffffffffff1673ffffffffffffffffffffffffffffffffffffffff16815260200190815260200160002060009054906101000a900460ff16610bd3576040517f08c379a00000000000000000000000000000000000000000000000000000000081526004018080602001828103825260168152602001807f556e72656769737465726564206d65726368616e74210000000000000000000081525060200191505060405180910390fd5b60008090505b600360008773ffffffffffffffffffffffffffffffffffffffff1673ffffffffffffffffffffffffffffffffffffffff16815260200190815260200160002080549050811015610f7757610d20600360008873ffffffffffffffffffffffffffffffffffffffff1673ffffffffffffffffffffffffffffffffffffffff1681526020019081526020016000208281548110610c7057fe5b90600052602060002090600302016000018054600181600116156101000203166002900480601f016020809104026020016040519081016040528092919081815260200182805460018160011615610100020316600290048015610d155780601f10610cea57610100808354040283529160200191610d15565b820191906000526020600020905b815481529060010190602001808311610cf857829003601f168201915b505050505085610f80565b8015610e255750610e24600360008873ffffffffffffffffffffffffffffffffffffffff1673ffffffffffffffffffffffffffffffffffffffff1681526020019081526020016000208281548110610d7457fe5b90600052602060002090600302016001018054600181600116156101000203166002900480601f016020809104026020016040519081016040528092919081815260200182805460018160011615610100020316600290048015610e195780601f10610dee57610100808354040283529160200191610e19565b820191906000526020600020905b815481529060010190602001808311610dfc57829003601f168201915b505050505084610f80565b5b15610f6a5781600360008873ffffffffffffffffffffffffffffffffffffffff1673ffffffffffffffffffffffffffffffffffffffff1681526020019081526020016000208281548110610e7557fe5b9060005260206000209060030201600201541015610efb576040517f08c379a00000000000000000000000000000000000000000000000000000000081526004018080602001828103825260148152602001807f496e73756666696369656e7420706f696e74732100000000000000000000000081525060200191505060405180910390fd5b81600360008873ffffffffffffffffffffffffffffffffffffffff1673ffffffffffffffffffffffffffffffffffffffff1681526020019081526020016000208281548110610f4657fe5b90600052602060002090600302016002016000828254039250508190555050610f79565b8080600101915050610bd9565b505b5050505050565b6000816040516020018082805190602001908083835b60208310610fb95780518252602082019150602081019050602083039250610f96565b6001836020036101000a03801982511681845116808217855250505050505090500191505060405160208183030381529060405280519060200120836040516020018082805190602001908083835b6020831061102b5780518252602082019150602081019050602083039250611008565b6001836020036101000a0380198251168184511680821785525050505050509050019150506040516020818303038152906040528051906020012014905092915050565b600260009054906101000a900473ffffffffffffffffffffffffffffffffffffffff1673ffffffffffffffffffffffffffffffffffffffff163373ffffffffffffffffffffffffffffffffffffffff1614611132576040517f08c379a00000000000000000000000000000000000000000000000000000000081526004018080602001828103825260128152602001807f596f752063616e277420646f207468617421000000000000000000000000000081525060200191505060405180910390fd5b6000808573ffffffffffffffffffffffffffffffffffffffff1673ffffffffffffffffffffffffffffffffffffffff16815260200190815260200160002060009054906101000a900460ff166111f0576040517f08c379a00000000000000000000000000000000000000000000000000000000081526004018080602001828103825260128152602001807f556e72656769737465726564207573657221000000000000000000000000000081525060200191505060405180910390fd5b60008090505b600360008673ffffffffffffffffffffffffffffffffffffffff1673ffffffffffffffffffffffffffffffffffffffff168152602001908152602001600020805490508110156114c35761133d600360008773ffffffffffffffffffffffffffffffffffffffff1673ffffffffffffffffffffffffffffffffffffffff168152602001908152602001600020828154811061128d57fe5b90600052602060002090600302016000018054600181600116156101000203166002900480601f0160208091040260200160405190810160405280929190818152602001828054600181600116156101000203166002900480156113325780601f1061130757610100808354040283529160200191611332565b820191906000526020600020905b81548152906001019060200180831161131557829003601f168201915b505050505085610f80565b80156114425750611441600360008773ffffffffffffffffffffffffffffffffffffffff1673ffffffffffffffffffffffffffffffffffffffff168152602001908152602001600020828154811061139157fe5b90600052602060002090600302016001018054600181600116156101000203166002900480601f0160208091040260200160405190810160405280929190818152602001828054600181600116156101000203166002900480156114365780601f1061140b57610100808354040283529160200191611436565b820191906000526020600020905b81548152906001019060200180831161141957829003601f168201915b505050505084610f80565b5b156114b65781600360008773ffffffffffffffffffffffffffffffffffffffff1673ffffffffffffffffffffffffffffffffffffffff168152602001908152602001600020828154811061149257fe5b90600052602060002090600302016002016000828254019250508190555050611591565b80806001019150506111f6565b50600360008573ffffffffffffffffffffffffffffffffffffffff1673ffffffffffffffffffffffffffffffffffffffff168152602001908152602001600020604051806060016040528085815260200184815260200183815250908060018154018082558091505090600182039060005260206000209060030201600090919290919091506000820151816000019080519060200190611565929190611597565b506020820151816001019080519060200190611582929190611597565b50604082015181600201555050505b50505050565b828054600181600116156101000203166002900490600052602060002090601f016020900481019282601f106115d857805160ff1916838001178555611606565b82800160010185558215611606579182015b828111156116055782518255916020019190600101906115ea565b5b5090506116139190611617565b5090565b61163991905b8082111561163557600081600090555060010161161d565b5090565b9056fea265627a7a723158207800085624840ae0dfd27e8156e28a0e207a5282420861be8fd60bf841d4b7d264736f6c63430005100032",
  "source": "pragma solidity ^0.5.16;\r\n\r\n\r\ncontract RewardContract {\r\n    struct RewardPoint {\r\n        string scope;\r\n        string usePermissions;\r\n        uint balance;\r\n    }\r\n    function compareStrings (string memory a, string memory b) public view returns (bool) {\r\n        return (keccak256(abi.encodePacked((a))) == keccak256(abi.encodePacked((b))) );\r\n    }\r\n    \r\n    mapping(address => bool) registeredUsers;\r\n    mapping(address => bool) registeredMerchants;\r\n    \r\n    address owner = msg.sender;\r\n    mapping(address => RewardPoint[]) public RewardStatus;\r\n    \r\n    function registerUser(address user) public{\r\n        registeredUsers[user] = true;\r\n    }\r\n    \r\n    function registerMerchants(address merchant) public{\r\n        require(!registeredMerchants[merchant], \"Merchant is already registered!\");\r\n        registeredMerchants[merchant] = true;\r\n    }\r\n    \r\n    function earnPoints(address targetUser, string memory scope, string memory usePermissions, uint amount) public{\r\n        require(msg.sender == owner, \"You can't do that!\");\r\n        require(registeredUsers[targetUser], \"Unregistered user!\");\r\n        for(uint i = 0; i < RewardStatus[targetUser].length; i++){\r\n            if(compareStrings(RewardStatus[targetUser][i].scope, scope) && compareStrings(RewardStatus[targetUser][i].usePermissions, usePermissions)){\r\n                RewardStatus[targetUser][i].balance += amount;\r\n                return;\r\n            }\r\n        }\r\n        RewardStatus[targetUser].push(RewardPoint({\r\n            scope: scope,\r\n            usePermissions: usePermissions,\r\n            balance: amount\r\n        }));\r\n    }\r\n    \r\n    function usePoints(address targetUser, address merchant, string memory scope, string memory usePermissions, uint amount) public{\r\n        require(msg.sender == owner, \"You can't do that!\");\r\n        require(registeredUsers[targetUser], \"Unregistered user!\");\r\n        require(registeredMerchants[merchant], \"Unregistered merchant!\");\r\n            for(uint i = 0; i < RewardStatus[targetUser].length; i++){\r\n                if(compareStrings(RewardStatus[targetUser][i].scope, scope) && compareStrings(RewardStatus[targetUser][i].usePermissions, usePermissions)){\r\n                        require(RewardStatus[targetUser][i].balance >= amount, \"Insufficient points!\");\r\n                        RewardStatus[targetUser][i].balance -= amount;\r\n                        return;\r\n                    }\r\n                }\r\n                \r\n            }\r\n        \r\n    }\r\n",
  "sourcePath": "D:\\Hackathon\\TruffleProject\\contracts\\RewardContract.sol",
  "compiler": {
    "name": "solc",
    "version": "0.5.16+commit.9c3226ce.Emscripten.clang"
  },
  "schemaVersion": "3.2.1",
  "updatedAt": "2020-07-05T20:43:42.047Z",
  "devdoc": {
    "methods": {}
  },
  "userdoc": {
    "methods": {}
  }
}